{
  "_format": "hh-sol-artifact-1",
  "contractName": "Minter",
  "sourceName": "contracts/Minter.sol",
  "abi": [
    {
      "inputs": [
        {
          "internalType": "address",
          "name": "_marketplaceAddress",
          "type": "address"
        }
      ],
      "stateMutability": "nonpayable",
      "type": "constructor"
    },
    {
      "anonymous": false,
      "inputs": [
        {
          "indexed": true,
          "internalType": "address",
          "name": "owner",
          "type": "address"
        },
        {
          "indexed": true,
          "internalType": "address",
          "name": "approved",
          "type": "address"
        },
        {
          "indexed": true,
          "internalType": "uint256",
          "name": "tokenId",
          "type": "uint256"
        }
      ],
      "name": "Approval",
      "type": "event"
    },
    {
      "anonymous": false,
      "inputs": [
        {
          "indexed": true,
          "internalType": "address",
          "name": "owner",
          "type": "address"
        },
        {
          "indexed": true,
          "internalType": "address",
          "name": "operator",
          "type": "address"
        },
        {
          "indexed": false,
          "internalType": "bool",
          "name": "approved",
          "type": "bool"
        }
      ],
      "name": "ApprovalForAll",
      "type": "event"
    },
    {
      "anonymous": false,
      "inputs": [
        {
          "indexed": false,
          "internalType": "uint256",
          "name": "_fromTokenId",
          "type": "uint256"
        },
        {
          "indexed": false,
          "internalType": "uint256",
          "name": "_toTokenId",
          "type": "uint256"
        }
      ],
      "name": "BatchMetadataUpdate",
      "type": "event"
    },
    {
      "anonymous": false,
      "inputs": [
        {
          "indexed": false,
          "internalType": "uint256",
          "name": "_tokenId",
          "type": "uint256"
        }
      ],
      "name": "MetadataUpdate",
      "type": "event"
    },
    {
      "anonymous": false,
      "inputs": [
        {
          "indexed": true,
          "internalType": "address",
          "name": "from",
          "type": "address"
        },
        {
          "indexed": true,
          "internalType": "address",
          "name": "to",
          "type": "address"
        },
        {
          "indexed": true,
          "internalType": "uint256",
          "name": "tokenId",
          "type": "uint256"
        }
      ],
      "name": "Transfer",
      "type": "event"
    },
    {
      "inputs": [
        {
          "internalType": "address",
          "name": "sender",
          "type": "address"
        },
        {
          "internalType": "address",
          "name": "recipient",
          "type": "address"
        },
        {
          "internalType": "uint256",
          "name": "tokenId",
          "type": "uint256"
        }
      ],
      "name": "acceptNFTs",
      "outputs": [],
      "stateMutability": "nonpayable",
      "type": "function"
    },
    {
      "inputs": [
        {
          "internalType": "address",
          "name": "to",
          "type": "address"
        },
        {
          "internalType": "uint256",
          "name": "tokenId",
          "type": "uint256"
        }
      ],
      "name": "approve",
      "outputs": [],
      "stateMutability": "nonpayable",
      "type": "function"
    },
    {
      "inputs": [
        {
          "internalType": "address",
          "name": "owner",
          "type": "address"
        }
      ],
      "name": "balanceOf",
      "outputs": [
        {
          "internalType": "uint256",
          "name": "",
          "type": "uint256"
        }
      ],
      "stateMutability": "view",
      "type": "function"
    },
    {
      "inputs": [
        {
          "internalType": "uint256",
          "name": "tokenId",
          "type": "uint256"
        }
      ],
      "name": "checkOwner",
      "outputs": [
        {
          "internalType": "address",
          "name": "",
          "type": "address"
        }
      ],
      "stateMutability": "view",
      "type": "function"
    },
    {
      "inputs": [
        {
          "internalType": "uint256",
          "name": "tokenId",
          "type": "uint256"
        }
      ],
      "name": "getApproved",
      "outputs": [
        {
          "internalType": "address",
          "name": "",
          "type": "address"
        }
      ],
      "stateMutability": "view",
      "type": "function"
    },
    {
      "inputs": [
        {
          "internalType": "address",
          "name": "_owner",
          "type": "address"
        }
      ],
      "name": "getBalance",
      "outputs": [
        {
          "internalType": "uint256",
          "name": "",
          "type": "uint256"
        }
      ],
      "stateMutability": "view",
      "type": "function"
    },
    {
      "inputs": [
        {
          "internalType": "address",
          "name": "owner",
          "type": "address"
        },
        {
          "internalType": "address",
          "name": "operator",
          "type": "address"
        }
      ],
      "name": "isApprovedForAll",
      "outputs": [
        {
          "internalType": "bool",
          "name": "",
          "type": "bool"
        }
      ],
      "stateMutability": "view",
      "type": "function"
    },
    {
      "inputs": [
        {
          "internalType": "string",
          "name": "tokenURI",
          "type": "string"
        },
        {
          "internalType": "address",
          "name": "recipient",
          "type": "address"
        }
      ],
      "name": "mint",
      "outputs": [
        {
          "internalType": "uint256",
          "name": "",
          "type": "uint256"
        }
      ],
      "stateMutability": "nonpayable",
      "type": "function"
    },
    {
      "inputs": [],
      "name": "name",
      "outputs": [
        {
          "internalType": "string",
          "name": "",
          "type": "string"
        }
      ],
      "stateMutability": "view",
      "type": "function"
    },
    {
      "inputs": [
        {
          "internalType": "uint256",
          "name": "tokenId",
          "type": "uint256"
        }
      ],
      "name": "ownerOf",
      "outputs": [
        {
          "internalType": "address",
          "name": "",
          "type": "address"
        }
      ],
      "stateMutability": "view",
      "type": "function"
    },
    {
      "inputs": [
        {
          "internalType": "address",
          "name": "from",
          "type": "address"
        },
        {
          "internalType": "address",
          "name": "to",
          "type": "address"
        },
        {
          "internalType": "uint256",
          "name": "tokenId",
          "type": "uint256"
        }
      ],
      "name": "safeTransferFrom",
      "outputs": [],
      "stateMutability": "nonpayable",
      "type": "function"
    },
    {
      "inputs": [
        {
          "internalType": "address",
          "name": "from",
          "type": "address"
        },
        {
          "internalType": "address",
          "name": "to",
          "type": "address"
        },
        {
          "internalType": "uint256",
          "name": "tokenId",
          "type": "uint256"
        },
        {
          "internalType": "bytes",
          "name": "data",
          "type": "bytes"
        }
      ],
      "name": "safeTransferFrom",
      "outputs": [],
      "stateMutability": "nonpayable",
      "type": "function"
    },
    {
      "inputs": [
        {
          "internalType": "address",
          "name": "sender",
          "type": "address"
        },
        {
          "internalType": "address",
          "name": "recipient",
          "type": "address"
        },
        {
          "internalType": "uint256",
          "name": "tokenId",
          "type": "uint256"
        }
      ],
      "name": "sendNFT",
      "outputs": [],
      "stateMutability": "nonpayable",
      "type": "function"
    },
    {
      "inputs": [
        {
          "internalType": "address",
          "name": "operator",
          "type": "address"
        },
        {
          "internalType": "bool",
          "name": "approved",
          "type": "bool"
        }
      ],
      "name": "setApprovalForAll",
      "outputs": [],
      "stateMutability": "nonpayable",
      "type": "function"
    },
    {
      "inputs": [
        {
          "internalType": "bytes4",
          "name": "interfaceId",
          "type": "bytes4"
        }
      ],
      "name": "supportsInterface",
      "outputs": [
        {
          "internalType": "bool",
          "name": "",
          "type": "bool"
        }
      ],
      "stateMutability": "view",
      "type": "function"
    },
    {
      "inputs": [],
      "name": "symbol",
      "outputs": [
        {
          "internalType": "string",
          "name": "",
          "type": "string"
        }
      ],
      "stateMutability": "view",
      "type": "function"
    },
    {
      "inputs": [
        {
          "internalType": "uint256",
          "name": "tokenId",
          "type": "uint256"
        }
      ],
      "name": "tokenURI",
      "outputs": [
        {
          "internalType": "string",
          "name": "",
          "type": "string"
        }
      ],
      "stateMutability": "view",
      "type": "function"
    },
    {
      "inputs": [
        {
          "internalType": "uint256",
          "name": "_tokenId",
          "type": "uint256"
        }
      ],
      "name": "tokenURL",
      "outputs": [
        {
          "internalType": "string",
          "name": "",
          "type": "string"
        }
      ],
      "stateMutability": "view",
      "type": "function"
    },
    {
      "inputs": [],
      "name": "totalSupply",
      "outputs": [
        {
          "internalType": "uint256",
          "name": "",
          "type": "uint256"
        }
      ],
      "stateMutability": "view",
      "type": "function"
    },
    {
      "inputs": [
        {
          "internalType": "address",
          "name": "from",
          "type": "address"
        },
        {
          "internalType": "address",
          "name": "to",
          "type": "address"
        },
        {
          "internalType": "uint256",
          "name": "tokenId",
          "type": "uint256"
        }
      ],
      "name": "transferFrom",
      "outputs": [],
      "stateMutability": "nonpayable",
      "type": "function"
    }
  ],
  "bytecode": "0x60806040523480156200001157600080fd5b506040516200324c3803806200324c83398181016040528101906200003791906200017b565b6040518060400160405280600681526020017f456e6566746900000000000000000000000000000000000000000000000000008152506040518060400160405280600381526020017f454e4600000000000000000000000000000000000000000000000000000000008152508160009081620000b4919062000427565b508060019081620000c6919062000427565b50505080600860006101000a81548173ffffffffffffffffffffffffffffffffffffffff021916908373ffffffffffffffffffffffffffffffffffffffff160217905550506200050e565b600080fd5b600073ffffffffffffffffffffffffffffffffffffffff82169050919050565b6000620001438262000116565b9050919050565b620001558162000136565b81146200016157600080fd5b50565b60008151905062000175816200014a565b92915050565b60006020828403121562000194576200019362000111565b5b6000620001a48482850162000164565b91505092915050565b600081519050919050565b7f4e487b7100000000000000000000000000000000000000000000000000000000600052604160045260246000fd5b7f4e487b7100000000000000000000000000000000000000000000000000000000600052602260045260246000fd5b600060028204905060018216806200022f57607f821691505b602082108103620002455762000244620001e7565b5b50919050565b60008190508160005260206000209050919050565b60006020601f8301049050919050565b600082821b905092915050565b600060088302620002af7fffffffffffffffffffffffffffffffffffffffffffffffffffffffffffffffff8262000270565b620002bb868362000270565b95508019841693508086168417925050509392505050565b6000819050919050565b6000819050919050565b60006200030862000302620002fc84620002d3565b620002dd565b620002d3565b9050919050565b6000819050919050565b6200032483620002e7565b6200033c62000333826200030f565b8484546200027d565b825550505050565b600090565b6200035362000344565b6200036081848462000319565b505050565b5b8181101562000388576200037c60008262000349565b60018101905062000366565b5050565b601f821115620003d757620003a1816200024b565b620003ac8462000260565b81016020851015620003bc578190505b620003d4620003cb8562000260565b83018262000365565b50505b505050565b600082821c905092915050565b6000620003fc60001984600802620003dc565b1980831691505092915050565b6000620004178383620003e9565b9150826002028217905092915050565b6200043282620001ad565b67ffffffffffffffff8111156200044e576200044d620001b8565b5b6200045a825462000216565b620004678282856200038c565b600060209050601f8311600181146200049f57600084156200048a578287015190505b62000496858262000409565b86555062000506565b601f198416620004af866200024b565b60005b82811015620004d957848901518255600182019150602085019450602081019050620004b2565b86831015620004f95784890151620004f5601f891682620003e9565b8355505b6001600288020188555050505b505050505050565b612d2e806200051e6000396000f3fe608060405234801561001057600080fd5b506004361061012c5760003560e01c806370a08231116100ad578063b88d4fde11610071578063b88d4fde14610367578063b99ab7ed14610383578063c87b56dd1461039f578063e985e9c5146103cf578063f8b2cb4f146103ff5761012c565b806370a08231146102b157806395d89b41146102e15780639870dce0146102ff578063a22cb4651461032f578063aa8209921461034b5761012c565b806318160ddd116100f457806318160ddd146101fb5780631c351a9d1461021957806323b872dd1461024957806342842e0e146102655780636352211e146102815761012c565b806301ffc9a71461013157806306fdde0314610161578063081812fc1461017f578063095ea7b3146101af578063154e839e146101cb575b600080fd5b61014b60048036038101906101469190611bb1565b61042f565b6040516101589190611bf9565b60405180910390f35b610169610490565b6040516101769190611ca4565b60405180910390f35b61019960048036038101906101949190611cfc565b610522565b6040516101a69190611d6a565b60405180910390f35b6101c960048036038101906101c49190611db1565b610568565b005b6101e560048036038101906101e09190611cfc565b61067f565b6040516101f29190611ca4565b60405180910390f35b610203610697565b6040516102109190611e00565b60405180910390f35b610233600480360381019061022e9190611f50565b6106a8565b6040516102409190611e00565b60405180910390f35b610263600480360381019061025e9190611fac565b6106e0565b005b61027f600480360381019061027a9190611fac565b610740565b005b61029b60048036038101906102969190611cfc565b610760565b6040516102a89190611d6a565b60405180910390f35b6102cb60048036038101906102c69190611fff565b6107e6565b6040516102d89190611e00565b60405180910390f35b6102e961089d565b6040516102f69190611ca4565b60405180910390f35b61031960048036038101906103149190611cfc565b61092f565b6040516103269190611d6a565b60405180910390f35b61034960048036038101906103449190612058565b610989565b005b61036560048036038101906103609190611fac565b61099f565b005b610381600480360381019061037c9190612139565b6109af565b005b61039d60048036038101906103989190611fac565b610a11565b005b6103b960048036038101906103b49190611cfc565b610a21565b6040516103c69190611ca4565b60405180910390f35b6103e960048036038101906103e491906121bc565b610b33565b6040516103f69190611bf9565b60405180910390f35b61041960048036038101906104149190611fff565b610bc7565b6040516104269190611e00565b60405180910390f35b6000634906490660e01b7bffffffffffffffffffffffffffffffffffffffffffffffffffffffff1916827bffffffffffffffffffffffffffffffffffffffffffffffffffffffff19161480610489575061048882610bde565b5b9050919050565b60606000805461049f9061222b565b80601f01602080910402602001604051908101604052809291908181526020018280546104cb9061222b565b80156105185780601f106104ed57610100808354040283529160200191610518565b820191906000526020600020905b8154815290600101906020018083116104fb57829003601f168201915b5050505050905090565b600061052d82610cc0565b6004600083815260200190815260200160002060009054906101000a900473ffffffffffffffffffffffffffffffffffffffff169050919050565b600061057382610760565b90508073ffffffffffffffffffffffffffffffffffffffff168373ffffffffffffffffffffffffffffffffffffffff16036105e3576040517f08c379a00000000000000000000000000000000000000000000000000000000081526004016105da906122ce565b60405180910390fd5b8073ffffffffffffffffffffffffffffffffffffffff16610602610d0b565b73ffffffffffffffffffffffffffffffffffffffff16148061063157506106308161062b610d0b565b610b33565b5b610670576040517f08c379a000000000000000000000000000000000000000000000000000000000815260040161066790612360565b60405180910390fd5b61067a8383610d13565b505050565b6060600061068c83610a21565b905080915050919050565b60006106a36007610dcc565b905090565b60006106b46007610dda565b60006106c06007610dcc565b90506106cc8382610df0565b6106d6818561100d565b8091505092915050565b6106f16106eb610d0b565b826110b1565b610730576040517f08c379a0000000000000000000000000000000000000000000000000000000008152600401610727906123f2565b60405180910390fd5b61073b838383611146565b505050565b61075b838383604051806020016040528060008152506109af565b505050565b60008061076c8361143f565b9050600073ffffffffffffffffffffffffffffffffffffffff168173ffffffffffffffffffffffffffffffffffffffff16036107dd576040517f08c379a00000000000000000000000000000000000000000000000000000000081526004016107d49061245e565b60405180910390fd5b80915050919050565b60008073ffffffffffffffffffffffffffffffffffffffff168273ffffffffffffffffffffffffffffffffffffffff1603610856576040517f08c379a000000000000000000000000000000000000000000000000000000000815260040161084d906124f0565b60405180910390fd5b600360008373ffffffffffffffffffffffffffffffffffffffff1673ffffffffffffffffffffffffffffffffffffffff168152602001908152602001600020549050919050565b6060600180546108ac9061222b565b80601f01602080910402602001604051908101604052809291908181526020018280546108d89061222b565b80156109255780601f106108fa57610100808354040283529160200191610925565b820191906000526020600020905b81548152906001019060200180831161090857829003601f168201915b5050505050905090565b600061093a8261147c565b610979576040517f08c379a00000000000000000000000000000000000000000000000000000000081526004016109709061255c565b60405180910390fd5b61098282610760565b9050919050565b61099b610994610d0b565b83836114bd565b5050565b6109aa8383836106e0565b505050565b6109c06109ba610d0b565b836110b1565b6109ff576040517f08c379a00000000000000000000000000000000000000000000000000000000081526004016109f6906123f2565b60405180910390fd5b610a0b84848484611629565b50505050565b610a1c838383611146565b505050565b6060610a2c82610cc0565b6000600660008481526020019081526020016000208054610a4c9061222b565b80601f0160208091040260200160405190810160405280929190818152602001828054610a789061222b565b8015610ac55780601f10610a9a57610100808354040283529160200191610ac5565b820191906000526020600020905b815481529060010190602001808311610aa857829003601f168201915b505050505090506000610ad6611685565b90506000815103610aeb578192505050610b2e565b600082511115610b20578082604051602001610b089291906125b8565b60405160208183030381529060405292505050610b2e565b610b298461169c565b925050505b919050565b6000600560008473ffffffffffffffffffffffffffffffffffffffff1673ffffffffffffffffffffffffffffffffffffffff16815260200190815260200160002060008373ffffffffffffffffffffffffffffffffffffffff1673ffffffffffffffffffffffffffffffffffffffff16815260200190815260200160002060009054906101000a900460ff16905092915050565b600080610bd3836107e6565b905080915050919050565b60007f80ac58cd000000000000000000000000000000000000000000000000000000007bffffffffffffffffffffffffffffffffffffffffffffffffffffffff1916827bffffffffffffffffffffffffffffffffffffffffffffffffffffffff19161480610ca957507f5b5e139f000000000000000000000000000000000000000000000000000000007bffffffffffffffffffffffffffffffffffffffffffffffffffffffff1916827bffffffffffffffffffffffffffffffffffffffffffffffffffffffff1916145b80610cb95750610cb882611704565b5b9050919050565b610cc98161147c565b610d08576040517f08c379a0000000000000000000000000000000000000000000000000000000008152600401610cff9061245e565b60405180910390fd5b50565b600033905090565b816004600083815260200190815260200160002060006101000a81548173ffffffffffffffffffffffffffffffffffffffff021916908373ffffffffffffffffffffffffffffffffffffffff160217905550808273ffffffffffffffffffffffffffffffffffffffff16610d8683610760565b73ffffffffffffffffffffffffffffffffffffffff167f8c5be1e5ebec7d5bd14f71427d1e84f3dd0314c0f7b2291e5b200ac8c7c3b92560405160405180910390a45050565b600081600001549050919050565b6001816000016000828254019250508190555050565b600073ffffffffffffffffffffffffffffffffffffffff168273ffffffffffffffffffffffffffffffffffffffff1603610e5f576040517f08c379a0000000000000000000000000000000000000000000000000000000008152600401610e5690612628565b60405180910390fd5b610e688161147c565b15610ea8576040517f08c379a0000000000000000000000000000000000000000000000000000000008152600401610e9f90612694565b60405180910390fd5b610eb660008383600161176e565b610ebf8161147c565b15610eff576040517f08c379a0000000000000000000000000000000000000000000000000000000008152600401610ef690612694565b60405180910390fd5b6001600360008473ffffffffffffffffffffffffffffffffffffffff1673ffffffffffffffffffffffffffffffffffffffff16815260200190815260200160002060008282540192505081905550816002600083815260200190815260200160002060006101000a81548173ffffffffffffffffffffffffffffffffffffffff021916908373ffffffffffffffffffffffffffffffffffffffff160217905550808273ffffffffffffffffffffffffffffffffffffffff16600073ffffffffffffffffffffffffffffffffffffffff167fddf252ad1be2c89b69c2b068fc378daa952ba7f163c4a11628f55a4df523b3ef60405160405180910390a4611009600083836001611774565b5050565b6110168261147c565b611055576040517f08c379a000000000000000000000000000000000000000000000000000000000815260040161104c90612726565b60405180910390fd5b8060066000848152602001908152602001600020908161107591906128f2565b507ff8e1a15aba9398e019f0b49df1a4fde98ee17ae345cb5f6b5e2c27f5033e8ce7826040516110a59190611e00565b60405180910390a15050565b6000806110bd83610760565b90508073ffffffffffffffffffffffffffffffffffffffff168473ffffffffffffffffffffffffffffffffffffffff1614806110ff57506110fe8185610b33565b5b8061113d57508373ffffffffffffffffffffffffffffffffffffffff1661112584610522565b73ffffffffffffffffffffffffffffffffffffffff16145b91505092915050565b8273ffffffffffffffffffffffffffffffffffffffff1661116682610760565b73ffffffffffffffffffffffffffffffffffffffff16146111bc576040517f08c379a00000000000000000000000000000000000000000000000000000000081526004016111b390612a36565b60405180910390fd5b600073ffffffffffffffffffffffffffffffffffffffff168273ffffffffffffffffffffffffffffffffffffffff160361122b576040517f08c379a000000000000000000000000000000000000000000000000000000000815260040161122290612ac8565b60405180910390fd5b611238838383600161176e565b8273ffffffffffffffffffffffffffffffffffffffff1661125882610760565b73ffffffffffffffffffffffffffffffffffffffff16146112ae576040517f08c379a00000000000000000000000000000000000000000000000000000000081526004016112a590612a36565b60405180910390fd5b6004600082815260200190815260200160002060006101000a81549073ffffffffffffffffffffffffffffffffffffffff02191690556001600360008573ffffffffffffffffffffffffffffffffffffffff1673ffffffffffffffffffffffffffffffffffffffff168152602001908152602001600020600082825403925050819055506001600360008473ffffffffffffffffffffffffffffffffffffffff1673ffffffffffffffffffffffffffffffffffffffff16815260200190815260200160002060008282540192505081905550816002600083815260200190815260200160002060006101000a81548173ffffffffffffffffffffffffffffffffffffffff021916908373ffffffffffffffffffffffffffffffffffffffff160217905550808273ffffffffffffffffffffffffffffffffffffffff168473ffffffffffffffffffffffffffffffffffffffff167fddf252ad1be2c89b69c2b068fc378daa952ba7f163c4a11628f55a4df523b3ef60405160405180910390a461143a8383836001611774565b505050565b60006002600083815260200190815260200160002060009054906101000a900473ffffffffffffffffffffffffffffffffffffffff169050919050565b60008073ffffffffffffffffffffffffffffffffffffffff1661149e8361143f565b73ffffffffffffffffffffffffffffffffffffffff1614159050919050565b8173ffffffffffffffffffffffffffffffffffffffff168373ffffffffffffffffffffffffffffffffffffffff160361152b576040517f08c379a000000000000000000000000000000000000000000000000000000000815260040161152290612b34565b60405180910390fd5b80600560008573ffffffffffffffffffffffffffffffffffffffff1673ffffffffffffffffffffffffffffffffffffffff16815260200190815260200160002060008473ffffffffffffffffffffffffffffffffffffffff1673ffffffffffffffffffffffffffffffffffffffff16815260200190815260200160002060006101000a81548160ff0219169083151502179055508173ffffffffffffffffffffffffffffffffffffffff168373ffffffffffffffffffffffffffffffffffffffff167f17307eab39ab6107e8899845ad3d59bd9653f200f220920489ca2b5937696c318360405161161c9190611bf9565b60405180910390a3505050565b611634848484611146565b6116408484848461177a565b61167f576040517f08c379a000000000000000000000000000000000000000000000000000000000815260040161167690612bc6565b60405180910390fd5b50505050565b606060405180602001604052806000815250905090565b60606116a782610cc0565b60006116b1611685565b905060008151116116d157604051806020016040528060008152506116fc565b806116db84611901565b6040516020016116ec9291906125b8565b6040516020818303038152906040525b915050919050565b60007f01ffc9a7000000000000000000000000000000000000000000000000000000007bffffffffffffffffffffffffffffffffffffffffffffffffffffffff1916827bffffffffffffffffffffffffffffffffffffffffffffffffffffffff1916149050919050565b50505050565b50505050565b600061179b8473ffffffffffffffffffffffffffffffffffffffff166119cf565b156118f4578373ffffffffffffffffffffffffffffffffffffffff1663150b7a026117c4610d0b565b8786866040518563ffffffff1660e01b81526004016117e69493929190612c3b565b6020604051808303816000875af192505050801561182257506040513d601f19601f8201168201806040525081019061181f9190612c9c565b60015b6118a4573d8060008114611852576040519150601f19603f3d011682016040523d82523d6000602084013e611857565b606091505b50600081510361189c576040517f08c379a000000000000000000000000000000000000000000000000000000000815260040161189390612bc6565b60405180910390fd5b805181602001fd5b63150b7a0260e01b7bffffffffffffffffffffffffffffffffffffffffffffffffffffffff1916817bffffffffffffffffffffffffffffffffffffffffffffffffffffffff1916149150506118f9565b600190505b949350505050565b606060006001611910846119f2565b01905060008167ffffffffffffffff81111561192f5761192e611e25565b5b6040519080825280601f01601f1916602001820160405280156119615781602001600182028036833780820191505090505b509050600082602001820190505b6001156119c4578080600190039150507f3031323334353637383961626364656600000000000000000000000000000000600a86061a8153600a85816119b8576119b7612cc9565b5b0494506000850361196f575b819350505050919050565b6000808273ffffffffffffffffffffffffffffffffffffffff163b119050919050565b600080600090507a184f03e93ff9f4daa797ed6e38ed64bf6a1f0100000000000000008310611a50577a184f03e93ff9f4daa797ed6e38ed64bf6a1f0100000000000000008381611a4657611a45612cc9565b5b0492506040810190505b6d04ee2d6d415b85acef81000000008310611a8d576d04ee2d6d415b85acef81000000008381611a8357611a82612cc9565b5b0492506020810190505b662386f26fc100008310611abc57662386f26fc100008381611ab257611ab1612cc9565b5b0492506010810190505b6305f5e1008310611ae5576305f5e1008381611adb57611ada612cc9565b5b0492506008810190505b6127108310611b0a576127108381611b0057611aff612cc9565b5b0492506004810190505b60648310611b2d5760648381611b2357611b22612cc9565b5b0492506002810190505b600a8310611b3c576001810190505b80915050919050565b6000604051905090565b600080fd5b600080fd5b60007fffffffff0000000000000000000000000000000000000000000000000000000082169050919050565b611b8e81611b59565b8114611b9957600080fd5b50565b600081359050611bab81611b85565b92915050565b600060208284031215611bc757611bc6611b4f565b5b6000611bd584828501611b9c565b91505092915050565b60008115159050919050565b611bf381611bde565b82525050565b6000602082019050611c0e6000830184611bea565b92915050565b600081519050919050565b600082825260208201905092915050565b60005b83811015611c4e578082015181840152602081019050611c33565b60008484015250505050565b6000601f19601f8301169050919050565b6000611c7682611c14565b611c808185611c1f565b9350611c90818560208601611c30565b611c9981611c5a565b840191505092915050565b60006020820190508181036000830152611cbe8184611c6b565b905092915050565b6000819050919050565b611cd981611cc6565b8114611ce457600080fd5b50565b600081359050611cf681611cd0565b92915050565b600060208284031215611d1257611d11611b4f565b5b6000611d2084828501611ce7565b91505092915050565b600073ffffffffffffffffffffffffffffffffffffffff82169050919050565b6000611d5482611d29565b9050919050565b611d6481611d49565b82525050565b6000602082019050611d7f6000830184611d5b565b92915050565b611d8e81611d49565b8114611d9957600080fd5b50565b600081359050611dab81611d85565b92915050565b60008060408385031215611dc857611dc7611b4f565b5b6000611dd685828601611d9c565b9250506020611de785828601611ce7565b9150509250929050565b611dfa81611cc6565b82525050565b6000602082019050611e156000830184611df1565b92915050565b600080fd5b600080fd5b7f4e487b7100000000000000000000000000000000000000000000000000000000600052604160045260246000fd5b611e5d82611c5a565b810181811067ffffffffffffffff82111715611e7c57611e7b611e25565b5b80604052505050565b6000611e8f611b45565b9050611e9b8282611e54565b919050565b600067ffffffffffffffff821115611ebb57611eba611e25565b5b611ec482611c5a565b9050602081019050919050565b82818337600083830152505050565b6000611ef3611eee84611ea0565b611e85565b905082815260208101848484011115611f0f57611f0e611e20565b5b611f1a848285611ed1565b509392505050565b600082601f830112611f3757611f36611e1b565b5b8135611f47848260208601611ee0565b91505092915050565b60008060408385031215611f6757611f66611b4f565b5b600083013567ffffffffffffffff811115611f8557611f84611b54565b5b611f9185828601611f22565b9250506020611fa285828601611d9c565b9150509250929050565b600080600060608486031215611fc557611fc4611b4f565b5b6000611fd386828701611d9c565b9350506020611fe486828701611d9c565b9250506040611ff586828701611ce7565b9150509250925092565b60006020828403121561201557612014611b4f565b5b600061202384828501611d9c565b91505092915050565b61203581611bde565b811461204057600080fd5b50565b6000813590506120528161202c565b92915050565b6000806040838503121561206f5761206e611b4f565b5b600061207d85828601611d9c565b925050602061208e85828601612043565b9150509250929050565b600067ffffffffffffffff8211156120b3576120b2611e25565b5b6120bc82611c5a565b9050602081019050919050565b60006120dc6120d784612098565b611e85565b9050828152602081018484840111156120f8576120f7611e20565b5b612103848285611ed1565b509392505050565b600082601f8301126121205761211f611e1b565b5b81356121308482602086016120c9565b91505092915050565b6000806000806080858703121561215357612152611b4f565b5b600061216187828801611d9c565b945050602061217287828801611d9c565b935050604061218387828801611ce7565b925050606085013567ffffffffffffffff8111156121a4576121a3611b54565b5b6121b08782880161210b565b91505092959194509250565b600080604083850312156121d3576121d2611b4f565b5b60006121e185828601611d9c565b92505060206121f285828601611d9c565b9150509250929050565b7f4e487b7100000000000000000000000000000000000000000000000000000000600052602260045260246000fd5b6000600282049050600182168061224357607f821691505b602082108103612256576122556121fc565b5b50919050565b7f4552433732313a20617070726f76616c20746f2063757272656e74206f776e6560008201527f7200000000000000000000000000000000000000000000000000000000000000602082015250565b60006122b8602183611c1f565b91506122c38261225c565b604082019050919050565b600060208201905081810360008301526122e7816122ab565b9050919050565b7f4552433732313a20617070726f76652063616c6c6572206973206e6f7420746f60008201527f6b656e206f776e6572206f7220617070726f76656420666f7220616c6c000000602082015250565b600061234a603d83611c1f565b9150612355826122ee565b604082019050919050565b600060208201905081810360008301526123798161233d565b9050919050565b7f4552433732313a2063616c6c6572206973206e6f7420746f6b656e206f776e6560008201527f72206f7220617070726f76656400000000000000000000000000000000000000602082015250565b60006123dc602d83611c1f565b91506123e782612380565b604082019050919050565b6000602082019050818103600083015261240b816123cf565b9050919050565b7f4552433732313a20696e76616c696420746f6b656e2049440000000000000000600082015250565b6000612448601883611c1f565b915061245382612412565b602082019050919050565b600060208201905081810360008301526124778161243b565b9050919050565b7f4552433732313a2061646472657373207a65726f206973206e6f74206120766160008201527f6c6964206f776e65720000000000000000000000000000000000000000000000602082015250565b60006124da602983611c1f565b91506124e58261247e565b604082019050919050565b60006020820190508181036000830152612509816124cd565b9050919050565b7f546f6b656e20646f6573206e6f74206578697374000000000000000000000000600082015250565b6000612546601483611c1f565b915061255182612510565b602082019050919050565b6000602082019050818103600083015261257581612539565b9050919050565b600081905092915050565b600061259282611c14565b61259c818561257c565b93506125ac818560208601611c30565b80840191505092915050565b60006125c48285612587565b91506125d08284612587565b91508190509392505050565b7f4552433732313a206d696e7420746f20746865207a65726f2061646472657373600082015250565b6000612612602083611c1f565b915061261d826125dc565b602082019050919050565b6000602082019050818103600083015261264181612605565b9050919050565b7f4552433732313a20746f6b656e20616c7265616479206d696e74656400000000600082015250565b600061267e601c83611c1f565b915061268982612648565b602082019050919050565b600060208201905081810360008301526126ad81612671565b9050919050565b7f45524337323155524953746f726167653a2055524920736574206f66206e6f6e60008201527f6578697374656e7420746f6b656e000000000000000000000000000000000000602082015250565b6000612710602e83611c1f565b915061271b826126b4565b604082019050919050565b6000602082019050818103600083015261273f81612703565b9050919050565b60008190508160005260206000209050919050565b60006020601f8301049050919050565b600082821b905092915050565b6000600883026127a87fffffffffffffffffffffffffffffffffffffffffffffffffffffffffffffffff8261276b565b6127b2868361276b565b95508019841693508086168417925050509392505050565b6000819050919050565b60006127ef6127ea6127e584611cc6565b6127ca565b611cc6565b9050919050565b6000819050919050565b612809836127d4565b61281d612815826127f6565b848454612778565b825550505050565b600090565b612832612825565b61283d818484612800565b505050565b5b818110156128615761285660008261282a565b600181019050612843565b5050565b601f8211156128a65761287781612746565b6128808461275b565b8101602085101561288f578190505b6128a361289b8561275b565b830182612842565b50505b505050565b600082821c905092915050565b60006128c9600019846008026128ab565b1980831691505092915050565b60006128e283836128b8565b9150826002028217905092915050565b6128fb82611c14565b67ffffffffffffffff81111561291457612913611e25565b5b61291e825461222b565b612929828285612865565b600060209050601f83116001811461295c576000841561294a578287015190505b61295485826128d6565b8655506129bc565b601f19841661296a86612746565b60005b828110156129925784890151825560018201915060208501945060208101905061296d565b868310156129af57848901516129ab601f8916826128b8565b8355505b6001600288020188555050505b505050505050565b7f4552433732313a207472616e736665722066726f6d20696e636f72726563742060008201527f6f776e6572000000000000000000000000000000000000000000000000000000602082015250565b6000612a20602583611c1f565b9150612a2b826129c4565b604082019050919050565b60006020820190508181036000830152612a4f81612a13565b9050919050565b7f4552433732313a207472616e7366657220746f20746865207a65726f2061646460008201527f7265737300000000000000000000000000000000000000000000000000000000602082015250565b6000612ab2602483611c1f565b9150612abd82612a56565b604082019050919050565b60006020820190508181036000830152612ae181612aa5565b9050919050565b7f4552433732313a20617070726f766520746f2063616c6c657200000000000000600082015250565b6000612b1e601983611c1f565b9150612b2982612ae8565b602082019050919050565b60006020820190508181036000830152612b4d81612b11565b9050919050565b7f4552433732313a207472616e7366657220746f206e6f6e20455243373231526560008201527f63656976657220696d706c656d656e7465720000000000000000000000000000602082015250565b6000612bb0603283611c1f565b9150612bbb82612b54565b604082019050919050565b60006020820190508181036000830152612bdf81612ba3565b9050919050565b600081519050919050565b600082825260208201905092915050565b6000612c0d82612be6565b612c178185612bf1565b9350612c27818560208601611c30565b612c3081611c5a565b840191505092915050565b6000608082019050612c506000830187611d5b565b612c5d6020830186611d5b565b612c6a6040830185611df1565b8181036060830152612c7c8184612c02565b905095945050505050565b600081519050612c9681611b85565b92915050565b600060208284031215612cb257612cb1611b4f565b5b6000612cc084828501612c87565b91505092915050565b7f4e487b7100000000000000000000000000000000000000000000000000000000600052601260045260246000fdfea26469706673582212204ea71a258c375bfdb7cb795d59c3a1072375ec787e8fcbbe0cc3b7ff66906cbb64736f6c63430008110033",
  "linkReferences": {},
  "deployedLinkReferences": {}
}